{
  "contractName": "LendingContract",
  "abi": [
    {
      "inputs": [
        {
          "internalType": "address",
          "name": "",
          "type": "address"
        }
      ],
      "name": "balances",
      "outputs": [
        {
          "internalType": "uint256",
          "name": "",
          "type": "uint256"
        }
      ],
      "stateMutability": "view",
      "type": "function",
      "constant": true
    },
    {
      "inputs": [],
      "name": "totalLiquidity",
      "outputs": [
        {
          "internalType": "uint256",
          "name": "",
          "type": "uint256"
        }
      ],
      "stateMutability": "view",
      "type": "function",
      "constant": true
    },
    {
      "inputs": [
        {
          "internalType": "uint256",
          "name": "amount",
          "type": "uint256"
        }
      ],
      "name": "deposit",
      "outputs": [],
      "stateMutability": "nonpayable",
      "type": "function"
    },
    {
      "inputs": [
        {
          "internalType": "uint256",
          "name": "amount",
          "type": "uint256"
        }
      ],
      "name": "borrow",
      "outputs": [],
      "stateMutability": "nonpayable",
      "type": "function"
    }
  ],
  "bytecode": "0x608060405234801561001057600080fd5b506105ba806100206000396000f3fe608060405234801561001057600080fd5b506004361061004c5760003560e01c806315770f921461005157806327e235e31461006f578063b6b55f251461009f578063c5ebeaec146100bb575b600080fd5b6100596100d7565b60405161006691906102de565b60405180910390f35b6100896004803603810190610084919061035c565b6100dd565b60405161009691906102de565b60405180910390f35b6100b960048036038101906100b491906103b5565b6100f5565b005b6100d560048036038101906100d091906103b5565b6101a9565b005b60015481565b60006020528060005260406000206000915090505481565b60008111610138576040517f08c379a000000000000000000000000000000000000000000000000000000000815260040161012f9061043f565b60405180910390fd5b806000803373ffffffffffffffffffffffffffffffffffffffff1673ffffffffffffffffffffffffffffffffffffffff1681526020019081526020016000206000828254610186919061048e565b92505081905550806001600082825461019f919061048e565b9250508190555050565b600081116101ec576040517f08c379a00000000000000000000000000000000000000000000000000000000081526004016101e39061043f565b60405180910390fd5b806000803373ffffffffffffffffffffffffffffffffffffffff1673ffffffffffffffffffffffffffffffffffffffff16815260200190815260200160002054101561026d576040517f08c379a000000000000000000000000000000000000000000000000000000000815260040161026490610530565b60405180910390fd5b806000803373ffffffffffffffffffffffffffffffffffffffff1673ffffffffffffffffffffffffffffffffffffffff16815260200190815260200160002060008282546102bb9190610550565b9250508190555050565b6000819050919050565b6102d8816102c5565b82525050565b60006020820190506102f360008301846102cf565b92915050565b600080fd5b600073ffffffffffffffffffffffffffffffffffffffff82169050919050565b6000610329826102fe565b9050919050565b6103398161031e565b811461034457600080fd5b50565b60008135905061035681610330565b92915050565b600060208284031215610372576103716102f9565b5b600061038084828501610347565b91505092915050565b610392816102c5565b811461039d57600080fd5b50565b6000813590506103af81610389565b92915050565b6000602082840312156103cb576103ca6102f9565b5b60006103d9848285016103a0565b91505092915050565b600082825260208201905092915050565b7f416d6f756e74206d7573742062652067726561746572207468616e2030000000600082015250565b6000610429601d836103e2565b9150610434826103f3565b602082019050919050565b600060208201905081810360008301526104588161041c565b9050919050565b7f4e487b7100000000000000000000000000000000000000000000000000000000600052601160045260246000fd5b6000610499826102c5565b91506104a4836102c5565b9250827fffffffffffffffffffffffffffffffffffffffffffffffffffffffffffffffff038211156104d9576104d861045f565b5b828201905092915050565b7f496e73756666696369656e742062616c616e6365000000000000000000000000600082015250565b600061051a6014836103e2565b9150610525826104e4565b602082019050919050565b600060208201905081810360008301526105498161050d565b9050919050565b600061055b826102c5565b9150610566836102c5565b9250828210156105795761057861045f565b5b82820390509291505056fea2646970667358221220f25605f12052ee10df9d6409a05a6a5051a54c38b743fc4be4b45801806e6a0a64736f6c634300080d0033",
  "immutableReferences": {},
  "source": "// SPDX-License-Identifier: MIT\n// Tells the Solidity compiler to compile only from v0.8.13 to v0.9.0\npragma solidity ^0.8.13;\n\n// This is just a simple example of a coin-like contract.\n// It is not ERC20 compatible and cannot be expected to talk to other\n// coin/token contracts.\n\ncontract LendingContract {\n\tmapping(address => uint256) public balances;\n\tuint256 public totalLiquidity;\n\n\tfunction deposit(uint256 amount) external {\n\t\trequire(amount > 0, \"Amount must be greater than 0\");\n\t\tbalances[msg.sender] += amount;\n\t\ttotalLiquidity += amount;\n\t}\n\n\tfunction borrow(uint256 amount) external {\n\t\trequire(amount > 0, \"Amount must be greater than 0\");\n\t\trequire(balances[msg.sender] >= amount, \"Insufficient balance\");\n\t\tbalances[msg.sender] -= amount;\n\t}\n}\n",
  "sourcePath": "/home/leo/Farm/tokenTransfer/contracts/LendingContract.sol",
  "compiler": {
    "name": "solc",
    "version": "0.8.13+commit.abaa5c0e.Emscripten.clang"
  },
  "schemaVersion": "3.4.16",
  "updatedAt": "2023-10-01T21:33:03.257Z",
  "networkType": "ethereum",
  "devdoc": {
    "kind": "dev",
    "methods": {},
    "version": 1
  },
  "userdoc": {
    "kind": "user",
    "methods": {},
    "version": 1
  }
}